{
  "contractName": "TradeGD",
  "abi": [
    {
      "anonymous": false,
      "inputs": [
        {
          "indexed": false,
          "internalType": "string",
          "name": "protocol",
          "type": "string"
        },
        {
          "indexed": false,
          "internalType": "string",
          "name": "action",
          "type": "string"
        },
        {
          "indexed": false,
          "internalType": "address",
          "name": "from",
          "type": "address"
        },
        {
          "indexed": false,
          "internalType": "uint256",
          "name": "ethValue",
          "type": "uint256"
        },
        {
          "indexed": false,
          "internalType": "uint256[]",
          "name": "uniswap",
          "type": "uint256[]"
        },
        {
          "indexed": false,
          "internalType": "uint256",
          "name": "gd",
          "type": "uint256"
        }
      ],
      "name": "GDTraded",
      "type": "event"
    },
    {
      "inputs": [],
      "name": "DAI",
      "outputs": [
        {
          "internalType": "contract cERC20",
          "name": "",
          "type": "address"
        }
      ],
      "stateMutability": "view",
      "type": "function",
      "constant": true
    },
    {
      "inputs": [],
      "name": "GD",
      "outputs": [
        {
          "internalType": "contract cERC20",
          "name": "",
          "type": "address"
        }
      ],
      "stateMutability": "view",
      "type": "function",
      "constant": true
    },
    {
      "inputs": [],
      "name": "cDAI",
      "outputs": [
        {
          "internalType": "contract cERC20",
          "name": "",
          "type": "address"
        }
      ],
      "stateMutability": "view",
      "type": "function",
      "constant": true
    },
    {
      "inputs": [],
      "name": "uniswap",
      "outputs": [
        {
          "internalType": "contract Uniswap",
          "name": "",
          "type": "address"
        }
      ],
      "stateMutability": "view",
      "type": "function",
      "constant": true
    },
    {
      "inputs": [
        {
          "internalType": "address",
          "name": "_gd",
          "type": "address"
        },
        {
          "internalType": "address",
          "name": "_dai",
          "type": "address"
        },
        {
          "internalType": "address",
          "name": "_cdai",
          "type": "address"
        },
        {
          "internalType": "address",
          "name": "_reserve",
          "type": "address"
        }
      ],
      "name": "initialize",
      "outputs": [],
      "stateMutability": "nonpayable",
      "type": "function"
    },
    {
      "inputs": [
        {
          "internalType": "uint256",
          "name": "minDAIAmount",
          "type": "uint256"
        },
        {
          "internalType": "uint256",
          "name": "minGDAmount",
          "type": "uint256"
        }
      ],
      "name": "buyGDFromReserve",
      "outputs": [
        {
          "internalType": "uint256",
          "name": "",
          "type": "uint256"
        }
      ],
      "stateMutability": "payable",
      "type": "function",
      "payable": true
    },
    {
      "inputs": [
        {
          "internalType": "uint256",
          "name": "minGDAmount",
          "type": "uint256"
        }
      ],
      "name": "buyGDFromUniswap",
      "outputs": [
        {
          "internalType": "uint256",
          "name": "",
          "type": "uint256"
        }
      ],
      "stateMutability": "payable",
      "type": "function",
      "payable": true
    },
    {
      "inputs": [
        {
          "internalType": "uint256",
          "name": "minDAIAmount",
          "type": "uint256"
        },
        {
          "internalType": "uint256",
          "name": "minGDAmount",
          "type": "uint256"
        }
      ],
      "name": "sellGDFromReserveToUniswap",
      "outputs": [
        {
          "internalType": "uint256",
          "name": "",
          "type": "uint256"
        }
      ],
      "stateMutability": "payable",
      "type": "function",
      "payable": true
    }
  ],
  "bytecode": "0x608060405234801561001057600080fd5b50611529806100206000396000f3fe60806040526004361061007f5760003560e060020a900480636f6941b9116100525780636f6941b91461011c578063a754e42314610131578063e0bab4c414610154578063f8c8765e146101695761007f565b806316f2890f146100845780632681f7e4146100b95780633cede2ec146100ea5780633fb1ccf114610107575b600080fd5b6100a76004803603604081101561009a57600080fd5b50803590602001356101b6565b60408051918252519081900360200190f35b3480156100c557600080fd5b506100ce610267565b60408051600160a060020a039092168252519081900360200190f35b6100a76004803603602081101561010057600080fd5b5035610276565b34801561011357600080fd5b506100ce61070e565b34801561012857600080fd5b506100ce61071d565b6100a76004803603604081101561014757600080fd5b508035906020013561072c565b34801561016057600080fd5b506100ce610adb565b34801561017557600080fd5b506101b46004803603608081101561018c57600080fd5b50600160a060020a038135811691602081013582169160408201358116916060013516610aea565b005b6000806101c38484610dd5565b603454604080517fa9059cbb000000000000000000000000000000000000000000000000000000008152336004820152602481018490529051929350600160a060020a039091169163a9059cbb916044808201926020929091908290030181600087803b15801561023357600080fd5b505af1158015610247573d6000803e3d6000fd5b505050506040513d602081101561025d57600080fd5b5090949350505050565b603354600160a060020a031681565b60008034116102cf576040805160e560020a62461bcd02815260206004820152601660248201527f596f75206d7573742073656e6420736f6d652045544800000000000000000000604482015290519081900360640190fd5b6040805160038082526080820190925260609160208201838036833750506034548251929350600160a060020a031691839150600290811061030d57fe5b600160a060020a03928316602091820292909201015260355482519116908290600190811061033857fe5b600160a060020a03928316602091820292909201810191909152603354604080517fad5c46480000000000000000000000000000000000000000000000000000000081529051919093169263ad5c4648926004808301939192829003018186803b1580156103a557600080fd5b505afa1580156103b9573d6000803e3d6000fd5b505050506040513d60208110156103cf57600080fd5b5051815182906000906103de57fe5b6020026020010190600160a060020a03169081600160a060020a0316815250506060603360009054906101000a9004600160a060020a0316600160a060020a0316637ff36ab5348685334261a8c0016040518663ffffffff1660e060020a028152600401808581526020018060200184600160a060020a03168152602001838152602001828103825285818151815260200191508051906020019060200280838360005b8381101561049a578181015183820152602001610482565b50505050905001955050505050506000604051808303818588803b1580156104c157600080fd5b505af11580156104d5573d6000803e3d6000fd5b50505050506040513d6000823e601f3d908101601f1916820160405260208110156104ff57600080fd5b810190808051604051939291908464010000000082111561051f57600080fd5b90830190602082018581111561053457600080fd5b825186602082028301116401000000008211171561055157600080fd5b82525081516020918201928201910280838360005b8381101561057e578181015183820152602001610566565b50505050905001604052505050905060008160028151811061059c57fe5b60200260200101519050600081116105fe576040805160e560020a62461bcd02815260206004820152601060248201527f676420627579696e67206661696c656400000000000000000000000000000000604482015290519081900360640190fd5b7fad8e10549027a588946bc8eccabef0697a3e827043ef830aa88fad8e470fd57f3334848460405180806020018060200187600160a060020a0316815260200186815260200180602001858152602001848103845260078152602001807f756e697377617000000000000000000000000000000000000000000000000000815250602001848103835260038152602001807f6275790000000000000000000000000000000000000000000000000000000000815250602001848103825286818151815260200191508051906020019060200280838360005b838110156106ee5781810151838201526020016106d6565b5050505090500197505050505050505060405180910390a1949350505050565b603454600160a060020a031681565b603654600160a060020a031681565b6000806107398484610dd5565b60408051600280825260608083018452939450909160208301908036833750506034548251929350600160a060020a03169183915060009061077757fe5b600160a060020a0392831660209182029290920101526035548251911690829060019081106107a257fe5b6020026020010190600160a060020a03169081600160a060020a0316815250506060603360009054906101000a9004600160a060020a0316600160a060020a03166338ed1739848885334261a8c0016040518663ffffffff1660e060020a028152600401808681526020018581526020018060200184600160a060020a03168152602001838152602001828103825285818151815260200191508051906020019060200280838360005b8381101561086457818101518382015260200161084c565b505050509050019650505050505050600060405180830381600087803b15801561088d57600080fd5b505af11580156108a1573d6000803e3d6000fd5b505050506040513d6000823e601f3d908101601f1916820160405260208110156108ca57600080fd5b81019080805160405193929190846401000000008211156108ea57600080fd5b9083019060208201858111156108ff57600080fd5b825186602082028301116401000000008211171561091c57600080fd5b82525081516020918201928201910280838360005b83811015610949578181015183820152602001610931565b50505050905001604052505050905060008160018151811061096757fe5b60200260200101519050600081116109c9576040805160e560020a62461bcd02815260206004820152601160248201527f67642073656c6c696e67206661696c6564000000000000000000000000000000604482015290519081900360640190fd5b7fad8e10549027a588946bc8eccabef0697a3e827043ef830aa88fad8e470fd57f3334848760405180806020018060200187600160a060020a0316815260200186815260200180602001858152602001848103845260078152602001807f756e697377617000000000000000000000000000000000000000000000000000815250602001848103835260048152602001807f73656c6c00000000000000000000000000000000000000000000000000000000815250602001848103825286818151815260200191508051906020019060200280838360005b83811015610ab9578181015183820152602001610aa1565b5050505090500197505050505050505060405180910390a19695505050505050565b603554600160a060020a031681565b600054610100900460ff1680610b035750610b036114bf565b80610b11575060005460ff16155b610b4f5760405160e560020a62461bcd02815260040180806020018281038252602e8152602001806114c6602e913960400191505060405180910390fd5b600054610100900460ff16158015610b7a576000805460ff1961ff0019909116610100171660011790555b60338054737a250d5630b4cf539739df2c5dacb4c659f2488d73ffffffffffffffffffffffffffffffffffffffff199182161791829055603480548216600160a060020a0389811691909117918290556035805484168983161790556036805484168883161790556037805490931686821617909255604080517f095ea7b3000000000000000000000000000000000000000000000000000000008152938316600485015260001960248501525191169163095ea7b39160448083019260209291908290030181600087803b158015610c5257600080fd5b505af1158015610c66573d6000803e3d6000fd5b505050506040513d6020811015610c7c57600080fd5b5050603554603654604080517f095ea7b3000000000000000000000000000000000000000000000000000000008152600160a060020a03928316600482015260001960248201529051919092169163095ea7b39160448083019260209291908290030181600087803b158015610cf157600080fd5b505af1158015610d05573d6000803e3d6000fd5b505050506040513d6020811015610d1b57600080fd5b5050603654603754604080517f095ea7b3000000000000000000000000000000000000000000000000000000008152600160a060020a03928316600482015260001960248201529051919092169163095ea7b39160448083019260209291908290030181600087803b158015610d9057600080fd5b505af1158015610da4573d6000803e3d6000fd5b505050506040513d6020811015610dba57600080fd5b50508015610dce576000805461ff00191690555b5050505050565b6000803411610e2e576040805160e560020a62461bcd02815260206004820152601660248201527f596f75206d7573742073656e6420736f6d652045544800000000000000000000604482015290519081900360640190fd5b604080516002808252606080830184529260208301908036833750506035548251929350600160a060020a0316918391506001908110610e6a57fe5b600160a060020a03928316602091820292909201810191909152603354604080517fad5c46480000000000000000000000000000000000000000000000000000000081529051919093169263ad5c4648926004808301939192829003018186803b158015610ed757600080fd5b505afa158015610eeb573d6000803e3d6000fd5b505050506040513d6020811015610f0157600080fd5b505181518290600090610f1057fe5b6020026020010190600160a060020a03169081600160a060020a0316815250506060603360009054906101000a9004600160a060020a0316600160a060020a0316637ff36ab5348785304261a8c0016040518663ffffffff1660e060020a028152600401808581526020018060200184600160a060020a03168152602001838152602001828103825285818151815260200191508051906020019060200280838360005b83811015610fcc578181015183820152602001610fb4565b50505050905001955050505050506000604051808303818588803b158015610ff357600080fd5b505af1158015611007573d6000803e3d6000fd5b50505050506040513d6000823e601f3d908101601f19168201604052602081101561103157600080fd5b810190808051604051939291908464010000000082111561105157600080fd5b90830190602082018581111561106657600080fd5b825186602082028301116401000000008211171561108357600080fd5b82525081516020918201928201910280838360005b838110156110b0578181015183820152602001611098565b5050505090500160405250505090506000816001815181106110ce57fe5b6020026020010151905060008111611130576040805160e560020a62461bcd02815260206004820152601160248201527f44414920627579696e67206661696c6564000000000000000000000000000000604482015290519081900360640190fd5b603654604080517fa0712d68000000000000000000000000000000000000000000000000000000008152600481018490529051600092600160a060020a03169163a0712d6891602480830192602092919082900301818787803b15801561119657600080fd5b505af11580156111aa573d6000803e3d6000fd5b505050506040513d60208110156111c057600080fd5b50519050801561121a576040805160e560020a62461bcd02815260206004820152601260248201527f6344414920627579696e67206661696c65640000000000000000000000000000604482015290519081900360640190fd5b603654604080517f70a082310000000000000000000000000000000000000000000000000000000081523060048201529051600092600160a060020a0316916370a08231916024808301926020929190829003018186803b15801561127e57600080fd5b505afa158015611292573d6000803e3d6000fd5b505050506040513d60208110156112a857600080fd5b5051603754603654604080517fa59ac6dd000000000000000000000000000000000000000000000000000000008152600160a060020a03928316600482015260248101859052604481018c90529051939450600093919092169163a59ac6dd91606480830192602092919082900301818787803b15801561132857600080fd5b505af115801561133c573d6000803e3d6000fd5b505050506040513d602081101561135257600080fd5b50519050806113ab576040805160e560020a62461bcd02815260206004820152601060248201527f676420627579696e67206661696c656400000000000000000000000000000000604482015290519081900360640190fd5b7fad8e10549027a588946bc8eccabef0697a3e827043ef830aa88fad8e470fd57f3334878460405180806020018060200187600160a060020a0316815260200186815260200180602001858152602001848103845260078152602001807f7265736572766500000000000000000000000000000000000000000000000000815250602001848103835260038152602001807f6275790000000000000000000000000000000000000000000000000000000000815250602001848103825286818151815260200191508051906020019060200280838360005b8381101561149b578181015183820152602001611483565b5050505090500197505050505050505060405180910390a198975050505050505050565b303b159056fe436f6e747261637420696e7374616e63652068617320616c7265616479206265656e20696e697469616c697a6564a26469706673582212203974502db611d549718ae24ed0fad9fe1fa1cab3426210291697088bca1749c964736f6c634300060c0033",
  "immutableReferences": {},
  "source": "// SPDX-License-Identifier: MIT\n\npragma solidity >=0.6.0;\nimport \"@openzeppelin/upgrades-core/contracts/Initializable.sol\";\n\ninterface cERC20 {\n    function mint(uint256 mintAmount) external returns (uint256);\n\n    function redeemUnderlying(uint256 mintAmount) external returns (uint256);\n\n    function exchangeRateCurrent() external returns (uint256);\n\n    function exchangeRateStored() external view returns (uint256);\n\n    function balanceOf(address addr) external view returns (uint256);\n\n    function transfer(address to, uint256 amount) external returns (bool);\n\n    function approve(address spender, uint256 amount) external returns (bool);\n\n}\n\ninterface Uniswap {\n    function swapExactETHForTokens(uint amountOutMin, address[] calldata path, address to, uint deadline)\n        external\n        payable\n        returns (uint[] memory amounts);\n    \n    function swapExactTokensForETH(uint amountIn, uint amountOutMin, address[] calldata path, address to, uint deadline)\n        external\n        returns (uint[] memory amounts);\n\n    function swapExactTokensForTokens(uint amountIn, uint amountOutMin, address[] calldata path, address to, uint deadline)\n        external\n        returns (uint[] memory amounts);\n\n    function WETH() external pure returns (address);\n}\ninterface Reserve {\n    function buy(\n        address _buyWith,\n        uint256 _tokenAmount,\n        uint256 _minReturn\n    ) external returns (uint256);\n}\ncontract TradeGD is Initializable {\n    Uniswap public uniswap;\n    cERC20 public GD;\n    cERC20 public DAI;\n    cERC20 public cDAI;\n    Reserve reserve;\n\n    event GDTraded(string protocol,string action, address from, uint256 ethValue, uint256[] uniswap, uint256 gd);\n\n    function initialize(address _gd, address _dai, address _cdai, address _reserve) initializer public {\n        uniswap = Uniswap(address(0x7a250d5630B4cF539739dF2C5dAcb4c659F2488D));\n        GD = cERC20(_gd);\n        DAI = cERC20(_dai);\n        cDAI = cERC20(_cdai);\n        reserve = Reserve(_reserve);\n        GD.approve(address(uniswap), 0xffffffffffffffffffffffffffffffffffffffffffffffffffffffffffffffff);\n        DAI.approve(address(cDAI),0xffffffffffffffffffffffffffffffffffffffffffffffffffffffffffffffff);\n        cDAI.approve(address(reserve),0xffffffffffffffffffffffffffffffffffffffffffffffffffffffffffffffff);\n\n    }\n\n    /**\n    * @dev buy GD from reserve using ETH since reserve  is in cDAI\n    * we first buy DAI from uniswap -> mint cDAI -> buy GD\n    * @param minDAIAmount - the min amount of DAI to receive for buying with ETH\n    * @param minGDAmount - the min amount of GD to receive for buying with cDAI(via DAI)\n     */\n    function buyGDFromReserve(uint256 minDAIAmount,uint256 minGDAmount) external payable returns(uint256) {\n        uint256 gd = _buyGDFromReserve(minDAIAmount, minGDAmount);\n        GD.transfer(msg.sender,gd);\n        return gd;\n    }\n\n    function _buyGDFromReserve(uint256 minDAIAmount,uint256 minGDAmount) internal returns(uint256) {\n        require(msg.value>0,\"You must send some ETH\");\n        address[] memory path = new address[](2);\n        path[1] = address(DAI);\n        path[0] = uniswap.WETH();\n        uint256[] memory swap = uniswap.swapExactETHForTokens{value:msg.value}(minDAIAmount, path, address(this), now + 12 hours);\n        uint256 dai = swap[1];\n        require(dai > 0, \"DAI buying failed\");\n        uint256 cdaiRes = cDAI.mint(dai);\n        require(cdaiRes == 0, \"cDAI buying failed\");\n        uint256 cdai = cDAI.balanceOf(address(this));\n        uint256 gd = reserve.buy(address(cDAI),cdai,minGDAmount);\n        // uint256 gd = GD.balanceOf(address(this));\n        require(gd>0, \"gd buying failed\");\n        emit GDTraded(\"reserve\",\"buy\", msg.sender, msg.value, swap, gd);\n        return gd;\n    }\n\n/**\n    * @dev buy GD from uniswap pool using ETH since pool is in DAI\n    * we first buy DAI from uniswap -> buy GD\n    * @param minGDAmount - the min amount of GD to receive for buying with DAI(via ETH)\n     */\n    function buyGDFromUniswap(uint256 minGDAmount) external payable returns(uint256) {\n        require(msg.value>0,\"You must send some ETH\");\n        address[] memory path = new address[](3);\n        path[2] = address(GD);\n        path[1] = address(DAI);\n        path[0] = uniswap.WETH();\n        uint256[] memory swap = uniswap.swapExactETHForTokens{value: msg.value}(minGDAmount, path, address(msg.sender), now + 12 hours);\n        uint256 gd = swap[2];\n        require(gd>0, \"gd buying failed\");\n        emit GDTraded(\"uniswap\",\"buy\", msg.sender, msg.value, swap, gd);\n        return gd;\n    }\n\n    /** \n    * @dev buy GD from reserve using ETH and sell to uniswap pool resulting in DAI\n    * @param minDAIAmount - the min amount of dai to receive for selling G$\n    * @param minGDAmount - the min amount of GD to receive for buying with cDAI(via ETH)\n    */\n    function sellGDFromReserveToUniswap(uint256 minDAIAmount, uint256 minGDAmount) external payable returns(uint256) {\n        uint256 gd = _buyGDFromReserve(minDAIAmount, minGDAmount);\n        address[] memory path = new address[](2);\n        path[0] = address(GD);\n        path[1] = address(DAI);\n        uint256[] memory swap = uniswap.swapExactTokensForTokens(gd, minDAIAmount, path, address(msg.sender), now + 12 hours);\n        uint256 dai = swap[1];\n        require(dai>0, \"gd selling failed\");\n        emit GDTraded(\"uniswap\",\"sell\", msg.sender, msg.value, swap, gd);\n\n        return  dai;\n    }\n    \n    // function buyGDTest4(uint256 minDAIAmount,uint256 minGDAmount) external payable returns(uint256) {\n    //     if(msg.value<=0) return 0;\n    //     address[] memory path = new address[](2);\n    //     path[1] = address(DAI);\n    //     path[0] = uniswap.WETH();\n    //     uint256[] memory swap = uniswap.swapExactETHForTokens.value(msg.value)(minDAIAmount, path, address(this), now + 12 hours);\n    //     uint256 dai = swap[1];\n    //     DAI.approve(address(cDAI),dai);\n    //     uint256 cdaiRes = cDAI.mint(dai);\n    //     uint256 cdai = cDAI.balanceOf(address(this));\n    //     cDAI.approve(address(reserve),cdai);\n    //     uint256 gd = reserve.buy(address(cDAI),cdai,minGDAmount);\n    //     GD.transfer(msg.sender,gd);\n    //     emit GDBought(msg.sender, msg.value, swap, gd);\n    //     return gd;\n    // }\n}",
  "sourcePath": "/Users/hadar/workspace/GoodDollar/GoodBootstrap/packages/contracts/upgradables/contracts/trade/TradeGD.sol",
  "compiler": {
    "name": "solc",
    "version": "0.6.12+commit.27d51765.Emscripten.clang"
  },
  "schemaVersion": "3.2.4",
  "updatedAt": "2020-09-10T20:41:06.974Z",
  "networkType": "ethereum",
  "devdoc": {
    "kind": "dev",
    "methods": {
      "buyGDFromReserve(uint256,uint256)": {
        "details": "buy GD from reserve using ETH since reserve  is in cDAI we first buy DAI from uniswap -> mint cDAI -> buy GD",
        "params": {
          "minDAIAmount": "- the min amount of DAI to receive for buying with ETH",
          "minGDAmount": "- the min amount of GD to receive for buying with cDAI(via DAI)"
        }
      },
      "buyGDFromUniswap(uint256)": {
        "details": "buy GD from uniswap pool using ETH since pool is in DAI we first buy DAI from uniswap -> buy GD",
        "params": {
          "minGDAmount": "- the min amount of GD to receive for buying with DAI(via ETH)"
        }
      },
      "sellGDFromReserveToUniswap(uint256,uint256)": {
        "details": "buy GD from reserve using ETH and sell to uniswap pool resulting in DAI",
        "params": {
          "minDAIAmount": "- the min amount of dai to receive for selling G$",
          "minGDAmount": "- the min amount of GD to receive for buying with cDAI(via ETH)"
        }
      }
    },
    "version": 1
  },
  "userdoc": {
    "kind": "user",
    "methods": {},
    "version": 1
  }
}